:020000041000EA
:1000000000B5324B212058609868022188439860DF
:10001000D860186158612E4B002199600221596106
:100020000121F02299502B49196001219960352056
:1000300000F044F80222904214D00621196600F024
:1000400034F8196E01211966002018661A6600F04E
:100050002CF8196E196E196E052000F02FF8012189
:100060000842F9D1002199601B49196000215960AB
:100070001A491B48016001219960EB211966A021F2
:10008000196600F012F800219960164914480160C1
:100090000121996001BC002800D000471248134993
:1000A000086003C880F30888084703B5996A0420EC
:1000B0000142FBD001200142F8D103BD02B5186610
:1000C0001866FFF7F2FF186E186E02BD00000240BE
:1000D000000000180000070000035F00212200005C
:1000E000F4000018222000A00001001008ED00E03C
:1000F00000000000000000000000000074B24E7A12
:1001000000200420F7010010C3010010C5010010F9
:10011000C1010010C1010010C1010010C101001097
:10012000C1010010C1010010C1010010C701001081
:10013000C1010010C1010010C9010010CB01001065
:10014000CD010010CD010010CD010010CD01001037
:10015000CD010010CD010010CD010010CD01001027
:10016000CD010010CD010010CD010010CD01001017
:10017000CD010010CD010010CD010010CD01001007
:10018000CD010010CD010010CD010010CD010010F7
:10019000CD010010CD010010CD010010CD010010E7
:1001A000CD010010CD010010CD010010CD010010D7
:1001B000CD010010CD010010CD010010CD010010C7
:1001C00000BE00BE00BE00BE00BE00BEEFF3058054
:1001D000103800BEF2EB8871207C04104C7C0410B7
:1001E0003802001090A31AE71E481F49086006C88D
:1001F00081F3088810471D480068002801D019487D
:10020000F3E70DA40ECC002902D000F012F8F9E7B4
:100210001749184A002000E001C19142FCD116495B
:100220008847164988471649884700BEFDE701C937
:1002300001C29A42FBD370474C7C0410C0000020DE
:10024000001B00208C9604100000042000000420F5
:100250008C96041000100420001004200000000000
:10026000704700000000000008ED00E0000000D032
:10027000001B002070360020595800103104001077
:1002800019580010F8B5C04606480749091A8B10DE
:10029000C90FC91810B5491003D0044B002B00D06A
:1002A000984710BD001B0020001B0020000000002C
:1002B000054B10B5002B03D00449054800E000BFF2
:1002C000FFF7E2FF10BDC0460000000064340020CC
:1002D000CCF40010F0B54F46D646474B80B5994652
:1002E000464C474D85B0002005F0FCFB831C0FD029
:1002F00023680A2811D00D280FD03E2BF3D85A1CA2
:1003000022603F4AD054002005F0ECFB831CEFD163
:1003100005B0C0BCBA46B146F0BD002BE3DD0022FB
:10032000EA542A88374B9A422CD0374B2A889A4273
:100330003BD0364B2A889A424AD0354805F068FCB3
:10034000344B9A46484605F063FC5346986C03F0DC
:1003500053FD53460600186D0F0003F04DFD534644
:1003600002900391D86C03F047FD32003B000090EF
:100370000191294805F0D0FC002301222360274B7E
:100380001A70B0E7AB783D2BCFD125480CF006F8BA
:1003900003F022FC1F4B98649A4603F02DFD0200E7
:1003A0000B00204805F0B8FCCCE7AB783D2BC0D162
:1003B0001B480BF0F3FF03F00FFC164BD8649A4672
:1003C00003F01AFD02000B00174805F0A5FCB9E781
:1003D000AB783D2BB1D112480BF0E0FF03F0FCFBF2
:1003E0000C4B18659A4603F007FD02000B000F48FE
:1003F00005F092FCA6E7C046D0F400101C350020A2
:10040000DC3400206B7000006B6900006B6400003E
:1004100050F50010A42F0020E4F400106B360020EB
:10042000DF3400200CF5001024F500103CF500101E
:10043000F0B5DE46454657464E46E0B59FB005F05E
:1004400049FBFA20C00002F025FBE14B082218000E
:1004500009219A4600F0CAFFDE4B04229B4607237F
:10046000052158460093013B00F0EEF9DA4805F00B
:10047000CFFB3221584600F03DFB3221584600F0B8
:100480008FFB5B46186903F0B7FC5B460400986974
:100490000D0003F0B1FC5B4602900391586903F034
:1004A000ABFC22002B0000900191CC4805F034FCFD
:1004B0001AA90A00CA4B31CB31C21B681360C94B61
:1004C00032229946C84B48460193C84B0093C84B0B
:1004D00000F0CEFBC74805F09BFB484600F074FCDB
:1004E000C54C200005F094FBC44805F091FB48463C
:1004F00000F00AFE200005F08BFBC14BC14918003B
:10050000099300F0A1FEC04BBE4918000E9300F005
:100510009BFEBE4BBE4A984600234046BD4904930D
:100520000393029301930093BB4B01F001F808F091
:1005300085F9002800D03FE1012108F06FF964201F
:1005400002F0A8FA0021080008F068F9642002F01F
:10055000A1FA0121002008F061F9B04B0893B04BDB
:100560001193B04B1393B04B1093B04B129396E092
:100570005346186B03F040FCAD4AAE4B03F049FA0A
:100580000022AD4B03F026FA03F026FB03F034FC07
:10059000434604000D00186B03F02EFC0022A74B0D
:1005A00003F01DFA22002B0003F014FA0022A44BE2
:1005B0000EF03AFF0022A04B0EF0EEFE43460A90EA
:1005C0000B91586B03F018FC00229C4B03F007FAC8
:1005D00022002B0003F0FEF90022994B0EF024FFBD
:1005E0000022954B0EF0D8FE03F0F6FA43460C902D
:1005F000986B03F001FC0022904B03F0F0F922000D
:100600002B0003F0E7F900228D4B0EF00DFF0022C6
:10061000894B0EF0C1FE03F0DFFA43460F90D86B12
:1006200003F0EAFB0022854B03F0D9F922002B00EE
:1006300003F0D0F90022824B0EF0F6FE7E4B002232
:100640000EF0AAFE03F0C8FA041C0A980B9903F0F6
:10065000C3FA0122011C484600F084FD02224846EC
:100660000C9900F07FFD032248460F9900F07AFDB7
:1006700004224846211C00F075FD02F021FB801B7E
:10068000B941002949DC002900D18EE0FA2200237B
:10069000920002F085FF0123181A02F0FBF902F024
:1006A0000FFB0F000600FFF715FE584600F010F98B
:1006B00059460998283114AA00F0CCFD59460E98E5
:1006C000343117AA00F0C6FD404617AA14A901F05C
:1006D00071F8089B1B78002B21D1534634229B5C78
:1006E000002B00D044E701220021484600F03AFDEB
:1006F00002220021484600F035FD03220021484631
:1007000000F030FD04220021484600F02BFD02F0ED
:10071000D7FA801BB9410029B5DD0020BDE70023D1
:10072000089A13704346186803F066FB43460400BA
:1007300098680D0003F060FB4346029003915868EF
:1007400003F05AFB22002B0000900191119805F054
:10075000E3FA4346986C03F04FFB43460A900B9133
:10076000D86C03F049FB43460C900D91186D03F0D3
:1007700043FB53460400186B0D0003F03DFB53464A
:1007800034229A5C109B002A00D0139B04900591A0
:1007900002940395069312980C9B0D9C0093019470
:1007A0000A9A0B9B05F0B8FA97E7FA239B00984248
:1007B00000D26BE7002070E7224805F029FA0120FB
:1007C00040421FB0F0BCBB46B246A946A046F0BDB1
:1007D0009C34002010340020A0F50010C8F5001053
:1007E00074FD0010902F0020CDCCCC3DCDCC4C3DE5
:1007F000A0860100F8F500100CF6001014F60010A9
:100800004C3600206666663FE0240020A42F0020BE
:100810006F12833A48E17A3F000070416B36002046
:1008200038F6001098F5001094F500105CF60010F2
:10083000666666666666EE3F00001440000024406F
:100840000000594024F60010F0B517001C0083B0DA
:100850000E0005001C491D4807F03CFF380001212F
:1008600001F038F820000124012101F033F80121C2
:10087000089801F02FF8300001F0CCF82300D027C1
:10088000B3403F067B627B616C236A46FF336E6434
:100890009380C046C046C04622006B6C9A40BA6145
:1008A000C046C046C046022201A908480EF0ACFD71
:1008B000C046C046C0466B6C9C407C61C046C0468A
:1008C000C04603B0F0BDC046A086010000C0034092
:1008D000F0B5DE4657464E464546E0B585B0BB23EB
:1008E0006A460400D371C046C046C04601263200A5
:1008F000436CD0279A403F06BA61C046C046C04606
:100900006B460122D91D76480EF07EFD02AD0A200D
:10091000002102F049F806232A00002170480EF059
:1009200023FDC046C046C0463200636C9A407A61DF
:10093000C046C046C0460A20002102F035F82B8888
:100940006A465BBAE3806B885BBA2381AB885BBA8B
:100950006381C323D371C046C046C0463200636C76
:100960009A40BA61C046C046C0466B460122D91DB6
:100970005B480EF049FD0A20002102F015F806231D
:100980002A00002156480EF0EFFCC046C046C04683
:100990003200636C9A407A61C046C046C0460A2065
:1009A000002102F001F82B886A465BBA23806B882D
:1009B0005BBA6380AB885BBAA380C123D371C046A6
:1009C000C046C0463200636C9A40BA61C046C04619
:1009D000C0466B460122D91D41480EF015FD0A2084
:1009E000002101F0E1FF02232A0000213C480EF023
:1009F000BBFCC046C046C046636C9E407E61C0469C
:100A0000C046C04600210A2001F0CEFF2D886BBAF7
:100A1000A3810023E05E03F0C7F9324903F073F9C4
:100A200083460623E05E03F0BFF9E221890503F067
:100A30007EF982460223E05E03F0B6F9294903F00D
:100A400062F981460823E05E03F0AEF9E2218905F0
:100A500003F06DF980460423E05E03F0A5F9214917
:100A600003F051F9071C0A23E05E03F09DF9E2212F
:100A7000890503F05CF9EDBA061C280003F03CF888
:100A8000194A1A4B02F0ABFF0022194B02F0A2FFE9
:100A900003F0A2F821692064584603F02EF9E169B9
:100AA000A062504603F029F961696063484603F08B
:100AB00024F9216AE062404603F01FF9A063A169AE
:100AC000381C03F01AF9616A2063301C03F015F931
:100AD000E06305B0F0BCBB46B246A946A046F0BDF7
:100AE00000C003400000034352B81E85EBDD744094
:100AF00000003540F8B54E4645465746DE46884626
:100B0000E0B56A464B0043449B000733DB08DB003B
:100B1000D31A00AF9D460600E9466C460025002921
:100B20000CDD3000FFF7D4FEB36A01352360F36AB1
:100B30006360336BA3600C34A845F2D1404603F0E8
:100B400033F910239A464346B24483461C36002BA1
:100B50001BDD4D46002400202968013403F0D0F845
:100B60000C35A045F8D1594603F0CDF8534601C3E2
:100B70009A4604239C46E144B245EAD1BD46F0BC06
:100B8000BB46B246A946A046F8BD5946002003F030
:100B9000BAF8534601C39A46B342F6D1EEE7C046CF
:100BA000F0B54E4645465746DE46E0B583B06A4648
:100BB0004B005B189B000733DB08DB00D31A00AF48
:100BC0009D4680460E00E9466C46002500290FDD53
:100BD0004046FFF77DFE43465B6B0135236043468D
:100BE0009B6B63604346DB6BA3600C34AE42EFD17A
:100BF000300003F0D9F81C2343449A46242343448D
:100C00009B467860002E15DD4D46002400202968A3
:100C1000013403F075F80C35A642F8D1796803F079
:100C200072F804229446E144DA4512D0524601C2D9
:100C30009246E9E70020796803F065F8D34508D0CB
:100C4000524601C292460020796803F05CF8D34511
:100C5000F6D1FE21890503F050F84346BD4658629F
:100C600003B0F0BCBB46B246A946A046F0BDC046A4
:100C7000F0B5DE4657464E464546E0B5814683B060
:100C8000180017001C000E0003F088F80C99051CD2
:100C900003F04DF803F0AAF84B460D991880281C74
:100CA00003F045F803F0A2F84B466743240458804C
:100CB000230C019304234B44984614234B44009384
:100CC0000123BB469A46434630680421186000F071
:100CD00001FE33685C081F2B63D807231C400520E6
:100CE00002F024FA594602F035FC03F057F8071CCD
:100CF00003F07CF8C5B2280003F056F8011C381C3C
:100D000002F0FBFF8321C90503F011F803F06EF830
:100D1000A200264913192D019B00C0B2284359187F
:100D2000086023498C460199634419604B4630683A
:100D3000198845081F2830D807231D40AB005B19D0
:100D40001C4D9B00AC4655466344054223D01A48CF
:100D500009041D6804366940014080204001844632
:100D60006344196051461319144A9B009A1812687B
:100D700091430A0012498C4663441A6004239C463E
:100D8000009BE04443459ED103B0F0BCBB46B24655
:100D9000A946A046F0BD0B48DBE703231D400835FC
:100DA000CCE703231C40083499E7C0460400054003
:100DB000100005400C0005400000FFFF000005404A
:100DC00000100540FFFF000070B502880400406875
:100DD00043081F2800D83EE10321194008318B0049
:100DE0005B18C5499B008C466344C00700D43DE1B5
:100DF000C24910041D6868400140802040018446BB
:100E000063441960A06843081F2800D870E10321DB
:100E1000194008318B005B18B7499B008C4663442E
:100E2000C00700D461E1B54910041D686840014065
:100E300080204001844663441960E06843081F280D
:100E400000D84FE10321194008318B005B18AA49F3
:100E50009B008C466344C00700D440E1A7491004BE
:100E60001D68684001408020400184466344196049
:100E7000206943081F2800D92DE1072119408B0064
:100E80005B189D499B008C466344C00700D420E159
:100E90009A491204186842400A40802149018C4650
:100EA00063441A606068628843081F2800D80DE117
:100EB0000321194008318B005B188F499B008C4639
:100EC0006344C00700D4FEE08C4910041D686840EC
:100ED000014080204001844663441960A0684308B3
:100EE0001F2800D8ECE00321194008318B005B1863
:100EF00081499B008C466344C00700D4DDE07F49F4
:100F0000150418686840014080204001844663440D
:100F10001960E06843081F2800D8CBE0032119407E
:100F200008318B005B1874499B008C466344C007F2
:100F300000D4BCE0714910041D6868400140802065
:100F40004001844663441960206943081F2800D982
:100F5000A9E0072119408B005B1867499B008C466C
:100F60006344C00700D49CE06449120418684240FE
:100F70000A40802149018C4663441A60604801F0B0
:100F800089FD6068228843081F2800D886E0032175
:100F9000194008318B005B1857499B008C4663440D
:100FA000C00700D477E0554915041868684001402F
:100FB00080204001844663441960A06843081F28CC
:100FC00066D90321194008318B005B184A499B0000
:100FD0008C466344C00758D5484910041D686840D2
:100FE000014080204001844663441960E068430862
:100FF0001F2847D90321194008318B005B183E494F
:101000009B008C466344C00739D53C4915041868D9
:101010006840014080204001844663441960206993
:1010200043081F2827D8072119408B005B18324935
:101030009B008C466344C0071BD5304912041868D6
:1010400042400A40802149018C4663442C481A6082
:1010500001F020FD70BD072119408B005B18264967
:101060009B008C466344C00700D5C1E610002549AB
:10107000C0E62449E3E7032119400831D5E715000C
:101080002049C4E707211940B7E710001D49A5E72B
:101090000721194098E715001A4986E707211940EA
:1010A00078E7184962E703211940083153E7100037
:1010B000144941E70721194033E71500114920E79A
:1010C0000721194012E710000E49FFE607211940D9
:1010D000F1E60C49DEE6032119400831CFE61000A5
:1010E0000849BDE607211940AFE6100005499CE616
:1010F000072119408EE6C0460C0005400000FFFFA6
:10110000AC0D0000FFFF000010B5446801886308C3
:101110001F2C18D807221A4093009B180D4A9B00D9
:1011200094460A006344E40711D50A040A49186882
:1011300042400A40802149018C46634407481A60B6
:1011400001F0A8FC10BD03221A400832E4E704496C
:10115000EDE7C0460C0005400000FFFFB80B0000A3
:10116000FFFF0000F8B5CE464746541E050080B587
:10117000081C032C03D9C0BCB946B046F8BD2B8867
:10118000A400984602F038FE0022294B0EF04CF9DC
:10119000002200230EF000F94346060068880F0085
:1011A000C01A02F001FE39008146300002F014FD41
:1011B000011C484602F0BBFD02F01EFE1D4A1E4BFC
:1011C00002F027FC060040460F0002F095FC0B00E1
:1011D00002003900300002F0FDFB02F0C9FC2D19BD
:1011E000696880B24B081F2914D807221A4093005F
:1011F0009B18124A9B0094466344C90715D5104AB0
:101200000004196841400A40802149018C4663442A
:101210001A60B0E703221A40083293009B18074A6D
:101220009B0094466344C907E9D4064AE9E7C046EF
:10123000000059407B14AE47E17A843F0C00054022
:101240000000FFFFFFFF0000002301608360C36018
:1012500003617047F0B50368C6460400FE2000B580
:101260000E00191C80051500984602F046FDA16885
:1012700002F05DFD3168071C404602F058FD011C7C
:10128000381C02F03DFD2860A060FE202368800528
:10129000191C984602F031FDE16802F048FD7168C2
:1012A000071C404602F043FD011C381C02F028FDDB
:1012B0006860E060FE2023688005191C984602F0F3
:1012C0001CFD216902F033FDB168071C404602F0A5
:1012D0002EFD011C381C02F013FDA860206180BCAB
:1012E000B846F0BD3A4BF0B51F680123C64610243E
:1012F000984600B5374DAB691C420ED12600AB694C
:101300001E401C42FAD12B68DBB2C82B08D03A7AB7
:10131000002A07D1AB691C42F0D080BCB846F0BDB2
:1013200042463A72FA6A1F2A46D93B7CC02B16D134
:10133000F87BC0B202F0E0FB0022274B02F045FB35
:101340000022264B02F04BFB0022254B02F061FBF2
:101350000022244B02F05DFB02F03EFC38633B7C34
:10136000C12B16D1F87BC0B202F0C6FB00221E4B87
:1013700002F035FB00221A4B02F04BFB0022184B07
:1013800002F028FB0022174B02F043FB02F024FC82
:101390003863FB7DAC2B14D00021386B02F0F6FCD7
:1013A000002805D0FB7D122B02D101222233FA54F2
:1013B00000233B72FE629EE7B918561C4B72FE6218
:1013C00099E70022783BFA5400233B72F2E7C046CB
:1013D00008300020008003400080464000406A4002
:1013E0000000E03F0000594000806840002370B5D5
:1013F00004000372C362002020633420184D23547C
:10140000626028002160174901F0A8FC6068022191
:1014100000F060FA2068022100F05CFA5023AB6310
:101420006A6B183B1340104A28001360C0222B6BD4
:10143000120213400D4A082113600023012201F01B
:101440001DFD2800002101F055FD1520084900F080
:101450002DFC0121152000F0F1FB064B1C6070BD36
:1014600000800340A06806003490034030900340A1
:10147000E512001008300020F0B5CE46474680B592
:1014800089B08046109806920793059102F0B4FC4B
:10149000040011980D0002F0AFFC06000F00059843
:1014A00002F0AAFC32003B000DF0BEFF02000B0070
:1014B000200029000DF070FF00900191069802F0C5
:1014C0009BFC02000B00300039000DF0ADFF020064
:1014D0000B00200029000DF05FFF02900391079898
:1014E00002F08AFC02000B00300039000DF09CFF76
:1014F00002000B00200029000DF04EFF04000D003B
:101500000098019902F068FB43461860029803991D
:1015100002F062FB434629005860200002F05CFBA9
:1015200043469860404609B0C0BCB946B046F0BDDD
:101530008364009B0164C364019B42640365029B56
:101540004365039B8365049BC36500230363436377
:101550008363C36303604360836070478023F0B597
:10156000C6461B0600B58046C8180E1C02F044FC97
:101570000400301C0D0002F03FFC434606000F0043
:10158000186802F039FC32003B000DF04DFF0200FC
:101590000B00200029000DF0FFFE02F01DFB43466A
:1015A0001860586802F028FC02000B003000390077
:1015B0000DF03AFF02000B00200029000DF0ECFEB8
:1015C00002F00AFB43465860986802F015FC0200DE
:1015D0000B00300039000DF027FF02000B00200047
:1015E00029000DF0D9FE02F0F7FA43469860D8685A
:1015F00002F002FC02000B00300039000DF014FF75
:1016000002000B00200029000DF0C6FE02F0E4FAF3
:101610004346D86080BCB846F0BDC046F0B5DE4653
:10162000454657464E46E0B504008BB088460168F3
:10163000C06802F062FB6168071C206902F05DFB74
:10164000A168061C606902F058FB8022434612061E
:1016500094461B6881466344039343465B68391C88
:101660006344049343469B6863440593636C181C6E
:10167000984602F05CFB311C6062404602F057FB6A
:101680004946A062404602F052FB06AB9846464BE4
:10169000E0620193454B40460093616AA26AE36AA7
:1016A000FFF7EAFE23004246243323CA23C3A36C78
:1016B0004D469A46E36C616A9B46236DA761E661DD
:1016C00025625846994602F032FB391C8046504646
:1016D00002F02DFB011C404602F012FB4946071C9C
:1016E000039802F024FB011C381C02F009FBA16ADC
:1016F000071C584602F01BFB311C8046504602F086
:1017000016FB011C404602F0FBFA4946061C0498F1
:1017100002F00DFB011C301C02F0F2FAE16A061C1B
:10172000A06D02F004FB616D8046281C02F0FFFAF8
:10173000011C404602F0E4FAE16D051C059802F038
:10174000F6FA011C281C02F0DBFA311C051C381CBF
:1017500002F0D6FA291C02F0D3FA311C2063381C9F
:1017600002F0CBFA291C02F0C8FA391C6063301C65
:1017700002F0C3FA291C02F0C0FA80231B06A06302
:10178000311CF81802F0B9FA291C02F0B9FAE0632A
:10179000200007493030FFF7E1FE0BB0F0BCBB463C
:1017A000B246A946A046F0BD0000F0410000F0C1DD
:1017B00000007A44F8B5DE4657464E4645469368E3
:1017C000E0B5576804000D00381C191C1600984637
:1017D00002F01EFB80231B069C4636688246391C9D
:1017E000381C664402F0A3FA4146071C404602F04A
:1017F0009EFA011C381C02F083FA02F003FB011C64
:10180000301C02F005FB8046FE20636C80059B4681
:10181000236C191C994602F070FA6968061C584638
:1018200002F085FA616802F06BFA494602F07FFA2D
:10183000071C404602F0E0FA0022234B02F0E9F8D0
:10184000224A234B02F0CBF802F0C6F9311C02F019
:101850006EFA011C381C02F053FAA96880465846FB
:1018600002F065FAA16802F04BFA2968071C584695
:1018700002F05DFA216802F043FA494602F057FA95
:101880008146504602F0B8FA00220F4B02F0C1F830
:101890000E4A0F4B02F0A3F802F09EF9311C02F041
:1018A00046FA011C484602F02BFA43462900206004
:1018B000A76020006360FFF7B1FEF0BCBB46B246F4
:1018C000A946A046F8BDC04600806640182D445485
:1018D000FB210940094A83009A1810B51468402278
:1018E000544080322240064CC000A44663441A6033
:1018F000044B9C466044416010BDC04604C001409A
:1019000004D0014000400140074B8000C3181B6811
:10191000C90092000A435A400C231340034A9446DC
:10192000604403607047C04604C0014004D00140D9
:101930008000002905D0064B9C46022360440360CA
:101940007047044B9C46022360440360F8E7C0469E
:1019500004E0014004F00140D0231B061B6830B5B1
:101960000500584243412F205B4283430E48EC0858
:101970008446072028408000814020000B4D3C30E9
:1019800063448000A40041511B19002A05D0802225
:10199000920194466344196030BDC022920194467E
:1019A00063441960F8E7C0463041014000400140FF
:1019B000D023F0B5C6461B0698461B680C4F9B000B
:1019C0001600FA5804000D0000B5104209D1290094
:1019D00014430D203200FC5000F092F980BCB84650
:1019E000F0BD01F0ABFC43461B689B00FA58EEE7E4
:1019F0009434002010B504000D2000F07BFAD023B1
:101A00001B061B6802499B005A58A2435A5010BD3E
:101A1000943400200123D022834012069362936104
:101A2000094A83009A1811684022514080320A40C6
:101A30000649C0008C4663441A60054B9C4605234A
:101A4000604443607047C04604C0014004D0014078
:101A5000004001408023DB051868000F7047C04636
:101A60000FB400B5084883B004F0D2F8049B002BF3
:101A700007D005A91800019103F09AFE034804F06D
:101A8000C7F8012003F0ACFE94F60010F4F5001046
:101A9000EFF3108072B6034A1368002BFCD0BFF33B
:101AA0005F8F70472C0100D0BFF35F8F0022024B85
:101AB0001A6080F3108870472C0100D070B5EFF3E6
:101AC000108C72B60D4D2B68002BFCD0BFF35F8FCE
:101AD0000724CB08C618C05C01230C40A3401C009F
:101AE0000440034207D118433070BFF35F8F2C606E
:101AF0008CF3108870BD1000FFF7B2FF2C0100D0EE
:101B0000F8B54746CE46884680B5EFF3108C72B6DE
:101B10001C4D2C68002CFCD0BFF35F8F9A4222D85A
:101B200007210126894602E00132934218D34D462F
:101B300037001540AF40D4080119045D2742F3D1A6
:101B400010003C430C70BFF35F8F00220D4B1A60F6
:101B50008CF3108800280EDBC0BCB946B046F8BD37
:101B600001204042EFE7BFF35F8F00232B608CF32F
:101B70001088012040424346002BEDD00898FFF723
:101B80006FFFC0462C0100D030B5EFF3108C72B659
:101B90000A4C2368002BFCD0BFF35F8F0723012280
:101BA0000B409A40CD08435D93434355BFF35F8F8D
:101BB000002323608CF3108830BDC0462C0100D078
:101BC000044A1078431CDBB2172B00D91023137082
:101BD0007047C0463013002010B5064B064C82B04B
:101BE0000100009318221F232000FFF789FF02B095
:101BF00010BDC046A4F60010302600200021044B82
:101C0000044ABFF35F8F02C39342FAD17047C046C4
:101C1000000100D0800100D0054B064A1360064A3F
:101C2000136053609360D360136153619361704795
:101C30008080808000E400E004E400E01F2318407E
:101C40001E3B8340002905D0C021044A490053505F
:101C500013607047802201498B50FAE700E100E0F1
:101C600001228240034B1B6813405A1E9341D8B295
:101C70007047C04600E100E001238340014A136041
:101C80007047C04600E200E0064B10309B688000C1
:101C9000C358054A00209B1A2F229A424041C0B2E5
:101CA0007047C04600ED00E03413002070B50D0011
:101CB000EFF3108672B60F4A1368002BFCD0BFF307
:101CC0005F8F0D4B10309B6884001B590B4A934269
:101CD00003D09D4201D001F031FB074B9B681D51A1
:101CE000BFF35F8FBFF35F8F0022024B1A6086F352
:101CF000108870BD240100D000ED00E0CD0100107F
:101D0000F0B557464E46DE464546E0B585B006007E
:101D100000911700EFF3108B72B66A4A1368002B1C
:101D2000FCD0BFF35F8F0025674B5D579A46002DAF
:101D300000DAA9E06B00654C01935B199B009846A3
:101D4000A146C1444B4652469B7910361370604BF6
:101D5000B6009B6899590B1B2F2B33D95D4B9942C9
:101D600000D0ACE0019B42469C465B4B6544AD0015
:101D700063535A4B0232A218043B9B1A1B05584A64
:101D80005B0D651913436B80564B0121AB80FF231C
:101D9000AB71009BEF71AB604B460B4319004C4B92
:101DA0009B689951BFF35F8FBFF35F8F0022454B54
:101DB0001A608BF3108805B0F0BCBB46B246A9464A
:101DC000A046F0BD01200A008243D3798C46BB4275
:101DD00031D84546130044491B1B5B415943090D4B
:101DE0003D4B63533D4B02356519043B5B1B1B05A3
:101DF0003B4D5B0D2B43AA464D466B800425AC46FC
:101E00005546E044131F44441B1B1B055B0D1D433B
:101E10004B46997100999D8099604946DF71334B1B
:101E200001431360BBE75800C01880002018C17937
:101E3000B9422FD902000623D356002BF3DA0293BE
:101E40002B4B61460393131D9A4604235B429C4629
:101E5000E14450464B461B1A1B055B0D9C46204B2C
:101E6000957198466346404603439380019B5A19F7
:101E70009200039BA418A380029B1C4AA371009BA1
:101E80002260E771A3608AE701F058FA0025534603
:101E90005D574FE7908802934005131D9A4603153E
:101EA00061469C464046D444634604302018181AC4
:101EB000E0230005400D1B0218430390C5E701F025
:101EC0003DFA4FE7240100D068360020341300208B
:101ED00000ED00E0CD01001000A1FFFF6413002021
:101EE00000E0FFFF01BDFFFFAAAA000001488047F4
:101EF00001BD0000F0B5DE4657464E464546E0B50A
:101F00000C0083B0EFF3108872B6634A1368002B9D
:101F1000FCD0BFF35F8F614B61499A6803001033B7
:101F20009F00D55901938D4243D0A54254D05D4EB8
:101F3000AA1B2F2A3DD85C4B9B461B689946012360
:101F40001A009C4682404B4613401F229946634626
:101F5000024093409A4680225B4650469850BFF319
:101F60005F8FEFF305839B46002B37D0019B5B45CA
:101F700001D001F0E3F901232A009A4390688442DA
:101F800008D176E04B005B189B00F31898688442F8
:101F900036D01A00062151560029F3DA844254D073
:101FA0004B46002B27D0C02251463F4B5200995040
:101FB00019603A4B9B68DD51BFF35F8FBFF35F8FB2
:101FC0000022354B1A6088F3108803B0F0BCBB4682
:101FD000B246A946A046F0BD0D00EAE72A006346D6
:101FE0009A4390688442D5D10620105613000028E9
:101FF0000ADA0D0031E0802351462B4AD150D8E750
:1020000006201856002821DB420011188900741898
:102010008B46A1689960E179D97106216156997161
:10202000002924DBA488F11A640524155C440919ED
:1020300009051E4C490D2143998013181C4A9B0029
:102040001178F31899711070AAE713005946002906
:1020500014D1FF3191711749918015490A789A710D
:10206000154A9B1B5B415A43120D0A7098E71149B0
:10207000E2E70620105613000028C5DA0F4A10497F
:10208000D21A083A5002400D014399800D49520876
:102090000A43DA8084E7C046240100D000ED00E066
:1020A000CD0100103413002000E100E000E0FFFF4C
:1020B0006836002001BDFFFFAAAA00006E130020B1
:1020C00000F0FFFF00F8FFFF10B5830804000320B5
:1020D0002040FF24054AC0009446844081409B0074
:1020E00063441A68A2430A431A6010BD00E400E08A
:1020F00070B501240443EFF30581EFF3108C72B641
:10210000214A1368002BFCD0BFF35F8F1F4B0500E3
:102110001F4AED1A6D416A43120D1E4D8900AE68CB
:1021200052B27658A6421CD00621595691421CD074
:1021300012215956914222D01E215956914220D047
:102140002A2159560324914210D0134B19781A7042
:102150008171BFF35F8F00220B4B1A608CF31088E4
:1021600070BDAB680D4C5C50EFE7002461000919AD
:1021700089005B18FF21997109499980E5E70124DD
:10218000F4E70224F2E7C046240100D03413002013
:10219000AAAA000000ED00E068360020CD01001082
:1021A00001BDFFFF1F2110B5091A0248FFF7ECFC23
:1021B00010BDC0466D36002010B5084B084C82B0EB
:1021C00001000093002205232000FFF799FC00285E
:1021D00001DB1F23181A02B010BDC046C0F6001064
:1021E0006D36002070B504000E001500FFF7E8FC06
:1021F0000100200000F006F8A680E580BFF35F8FA5
:1022000070BDC046024B9C46614489000160704726
:102210004000003470B5114C114DAC420FD2FF2676
:102220002368002B0CD0FFF7CBFC01002000FFF748
:10223000E9FFA680BFF35F8F0834AC42F0D370BDD6
:10224000FFF7BEFC01002000FFF7DCFF2671BFF3A3
:102250005F8F0834AC42E3D3F1E7C046F81A0020A0
:10226000001B002010B50400FFF7AAFC01002000AD
:10227000FFF7C8FFFF232371BFF35F8F10BDC04678
:1022800010B50400FFF79CFC01002000FFF7BAFF27
:10229000FF23A380BFF35F8F10BDC04610B50400BD
:1022A0000120FFF799FC034BC3189B002360BFF389
:1022B0005F8F10BD40000034034B9C466144890091
:1022C0000160BFF35F8F7047400000340A4B19680C
:1022D000EFF3108072B60A68002AFCD0BFF35F8F5C
:1022E0001B68BFF35F8F00221A6080F3108840BF25
:1022F000002000217047C04624360020F0B5DE469D
:1023000057464E464546E0B587B0EFF305830322B6
:1023100001251A40954091008846A946B34B039287
:102320005C58B34B1D60B34B04934B46B2484363B8
:102330000823E55E002D37DAA3881BB2002B00DBF3
:10234000ADE0A379002B00D0EEE00823E05E00288A
:1023500020DB430062691B18DB00D3189E68DD6830
:10236000731C00D111E1A44801004144826A0B6949
:10237000B71A9B1A9F4215D30123026A0398834020
:102380001A420FD09C4800F093FC8D4202DCCCD165
:102390008642CAD940BF07B0F0BCBB46B246A94688
:1023A000A046F0BD0E61EDE762696B0092465B19D5
:1023B000DB009A4453469E68DF6800F079FC8F4248
:1023C000BADC00D103E1002F00DAE8E052465346C0
:1023D00052691B699346049A934200D1D9E0524650
:1023E0000821605E528800045946104398470090C7
:1023F00001910099019A0B001000134300D1CEE027
:1024000013000A00B61A9F41002806DB7A4800F044
:102410004FFC009E019F36184F4153469E60DF607F
:1024200000229A5E002A00DA86E753009918606954
:10243000C900411802938B68C9689B46B94200DD08
:102440007AE702D1B34200D976E708239C46A44438
:10245000059565462281A446029B2C0006E05300A8
:102460009918C90041188D68C968AB469B18DB00F4
:10247000C318B94206DC00D1B3E01C000023E25EC1
:10248000002AECDA230064469C4653461A806346D1
:10249000059D1D80A3881BB2002B00DA51E722693D
:1024A000EFF3108172B61368002BFCD0BFF35F8F7F
:1024B0000123A7885B42A3803FB22369BFF35F8FEC
:1024C00000221A6081F31088002F00DA39E7230018
:1024D000083322009A4666697B00DB19DB00F3189B
:1024E000996850468C460824115FDD68002910DB8E
:1024F000029306E0AB4244D00023E15E20000029B5
:1025000006DB4C006418E4003419E368AB42F1DDEB
:10251000029B078000201F5E1980002FDCDA140068
:10252000A379002B00D110E70023A3712600082314
:10253000E15E08364B1C00D12CE70800A246656915
:1025400002E03E004B1C1AD04B005B18DB00EF187A
:102550000A008C46E95E7B881BB2002BF1DA01236E
:102560005B42DC17BB60FC60824205D05346318081
:102570001B893B8053461A8160464B1CE4D154466C
:10258000E5E6A3686345B7D9C2E76B1C00D0EAE66D
:10259000F8E65B4658461B69984700281BD153460E
:1025A0001B8822692381EFF3108372B6116800291A
:1025B000FCD0BFF35F8F514662880A802269658034
:1025C000BFF35F8F0021116083F31088B4E6864269
:1025D00000D8F8E6B0E65B461A685B6800920193A3
:1025E00007E7B34500D848E74CE7C04684340020ED
:1025F0003C700540FD2200100040054070B52E4C97
:102600002569002D04D00A212C48FFF7FBFD70BD81
:102610002B4E0321300000F041FBE660FFF7D0FABB
:10262000284B03229C46D02322701B061B680121E5
:102630006370254B6044A3600F238000206102205B
:10264000638063694942A18019800231198647314C
:102650001D83585218315A5275325C3999521832CA
:10266000013199521832013199521832013199527F
:10267000083518329D520231183299521832013100
:102680009952183201319952183201319952183247
:10269000013199521832013199520C4B0C49DC60CE
:1026A00001303562FFF702FB01210320FFF7C6FA74
:1026B000084B1D60A7E7C0467C130020243600208D
:1026C0000040054040000034FFFF1000843400202B
:1026D000FD22001038600540004870477C13002040
:1026E000F8B51F0008AB1B7804001600002B08D1BA
:1026F00000F0E6FA32003B00121A8B41002B00DAA0
:1027000052E02269EFF3108072B61368002BFCD000
:10271000BFF35F8F0223E15E63694A005218D20063
:102720009B182269002936DB1D886580BFF35F8F07
:102730000025156080F31088069A9E60DF601A619C
:10274000079A5A615A8801325204520C101C002A0E
:102750001FD082B25880080410432669EFF3108717
:1027600072B63268002AFCD0BFF35F8FA2881A804D
:10277000A1802369BFF35F8F00221A6087F310885E
:102780000A4923788C4601329A40E36863441A6010
:10279000F8BD0120DDE7BFF35F8F0023136080F3F6
:1027A000108801204042F3E70020F1E73C200000C0
:1027B00070B501000469EFF3108C72B62068002830
:1027C000FCD0BFF35F8F02200D5E4C69680040199A
:1027D000C00024180869002D36DB26884E80BFF320
:1027E0005F8F002606608CF31088E360638804988E
:1027F000013320615B0405985B0CA26060611A1CC8
:10280000002B1FD093B22804628018430A69EFF3AB
:10281000108C72B61368002BFCD0BFF35F8F8B88CF
:1028200023808D800B69BFF35F8F00221A608CF3C9
:1028300010880B7801329A40CB6808498C46634473
:102840001A6070BD0122DDE7BFF35F8F00230360D4
:102850008CF3108801204042F3E7C0463C20000082
:1028600010B543890A1493421ADD53009B1842693C
:10287000DB00D3180469EFF3108C72B62268002ACB
:10288000FCD0BFF35F8F5A88090494B2090C8A42C6
:1028900008D00369BFF35F8F00221A608CF31088A1
:1028A000002010BD8022120214435C8001230269C3
:1028B0008371BFF35F8F002111608CF3108804498E
:1028C00002788C469340C268012062441360E8E7B6
:1028D0003C20000040787047F0B506000F00062449
:1028E0006442E517C646A4197D4100B582B08D4209
:1028F00014D811D000F0E4F922002B00121A8B41F9
:10290000002B15DC002B44D03000390000F016FA03
:1029100002B080BCB846F0BD8442EBD9002400254B
:1029200000F0CEF922002B00121A8B41002BE9DDBA
:1029300000F0C6F922002B00121A8B41002B0ADB93
:1029400000230193144B2200009314482B00FFF73F
:102950002FFF0130D8D0A04629000024104A11488A
:10296000536A994204D8956A4545CDD29942CBD154
:102970000568EFF3108C72B62B68002BFCD0BFF308
:102980005F8F0368BFF35F8F1C608CF3108820BFDC
:10299000E6E7002AB8D0CBE7CD2200107C13002058
:1029A0000040054024360020F0B5C64600B582B090
:1029B00004000D0000F084F924184D41002D02DAC6
:1029C00001242F4D644206267642F71736196F41CF
:1029D000AF4214D811D000F073F932003B00121A44
:1029E0008B41002B15DC002B46D02000290000F085
:1029F000A5F902B080BCB846F0BDA642EBD90026CE
:102A0000002700F05DF932003B00121A8B41002BC9
:102A1000E9DD00F055F932003B00121A8B41002B22
:102A20000ADB00230193174B3200009316483B004A
:102A3000FFF7BEFE0130D8D000233900B0469C46D7
:102A4000124A1348536A994204D8966A4645CCD232
:102A50009942CAD10668EFF3108772B63368002B2B
:102A6000FCD0BFF35F8F0368BFF35F8F66461E60C5
:102A700087F3108820BFE5E7002AB6D0C9E7C04633
:102A8000FFFFFF7FCD2200107C1300200040054097
:102A900024360020F0B5C64600B582B0040000F030
:102AA0000FF9FA2206000F002000002300219200F7
:102AB00001F006F98019794104000D1E02DA0124A3
:102AC0002E4D644206267642F71736196F41AF4203
:102AD00014D811D000F0F4F832003B00121A8B41E8
:102AE000002B15DC002B46D02000290000F026F931
:102AF00002B080BCB846F0BDA642EBD90026002744
:102B000000F0DEF832003B00121A8B41002BE9DDA9
:102B100000F0D6F832003B00121A8B41002B0ADB82
:102B200000230193164B3200009316483B00FFF739
:102B30003FFE0130D8D000233900B0469C46124AEF
:102B40001248536A994204D8966A4645CCD29942B3
:102B5000CAD10668EFF3108772B63368002BFCD039
:102B6000BFF35F8F0368BFF35F8F66461E6087F316
:102B7000108820BFE5E7002AB6D0C9E7FFFFFF7F36
:102B8000CD2200107C130020004005402436002098
:102B9000F0B557464E46DE464546E0B506000F0006
:102BA00085B0EFF3058399468B46002B12D0384948
:102BB00000204B6ABB4206D38A6ADB1B591E8B413D
:102BC000B2424041184305B0F0BCBB46B246A946EC
:102BD000A046F0BD2F4B9A46DB68984653461B78BB
:102BE0004046039300F064F84246039B040004331C
:102BF0009B009B580D001B1A39003000001BA94197
:102C0000894510DC0DD020BF214A0020536A5B4566
:102C1000D9D3926ADB1B591E8B41B2424041184303
:102C2000D1E78342EFD900F04BF832003B00121A93
:102C30008B41002B1ADB00230193174B32000093CA
:102C400050463B00FFF7B4FD011E0FDD104B5A6AE2
:102C50005A451BD39B6AB34216D35046FFF700FE7A
:102C60000B4A0020536A5B45ADD3D2E7084A0020E7
:102C7000536A5B45A7D30020926ADB1BB2424041F6
:102C80005A1E934118439EE75A45E6D120BFE4E718
:102C9000004005407C130020CD22001010B5024AF0
:102CA0000248FEF70BFF10BDDCF6001034260020B2
:102CB0000300416A0A00986A596A8A42FAD1704749
:102CC000034B596A0A00986A596A9142FAD17047CF
:102CD0000040054070B504000D00174A536A190002
:102CE000966A536A8B42FAD13000190024184D417C
:102CF000AB4216D813D0104B2A005B6A9D4203D911
:102D00000D494B6A9342FCD3934207D10A4A02E031
:102D1000516A994202D1916AA142F9D370BDA6428B
:102D2000E9D9054B5B6A1C005A1CEFD00122012433
:102D30006442E5175242E3E700400540064A536A01
:102D40009942FCD807D1044B02E05A6A914202D161
:102D50009A6A9042F9D8704700400540F8B50400DF
:102D600006200D0000F0E2F9002844D0374B384926
:102D7000E3185A1E93418022120494465B429B0D35
:102D8000344A9B0563441360334A136018000A6891
:102D90009043FBD12D4B314AE31859424B418021DE
:102DA0005B0049000620995200F0C0F92900C000DC
:102DB00000F0D0FB0130C3091ED14027012262621E
:102DC000A362266BF30722D4E36A254B0620E5189D
:102DD00000232B60266300F0A9F93900800000F081
:102DE000B9FB7023E26A5A400E3313402B601D4B2F
:102DF00023630323A364F8BD1B4A93421ED9002317
:102E00001A4A1B4F6262A362266BF307DCD5194B8B
:102E1000144AE3181A60656AA36A0620AD01ED182A
:102E200000F084F9144900F095FBAD020100280080
:102E300000F090FB0021FFF74DFFC5E74006800E34
:102E40009F011A003F180300B9E7C0460080FCBF8D
:102E500008C0004000E0004000F000403036002094
:102E60002C10000001030000FEFF0000FFFF000027
:102E7000C0FF3F00303000004E0E00000539013A1F
:102E8000F8B5D2004C0105001443002B06D0013BDD
:102E90005A4253419B00234302241C432E6BF307E9
:102EA00008D46E23EA6A624013400E4AAA181360DF
:102EB0002E63F8BD0C4B0D4AEB181A606F6AAB6AB3
:102EC0000620BF01FF1800F031F9094900F042FB6C
:102ED000BF020100380000F03DFB0021FFF7FAFEC1
:102EE000DFE7C0462C100000303000000103000076
:102EF0004E0E0000F8B5066B04000D01F30708D470
:102F0000E36A5D4010231D400D4BE3181D602663EE
:102F1000F8BD0C4B0C4AC3181A60476A836ABF019C
:102F20000620FF1800F002F9084900F013FBBF0269
:102F30000100380000F00EFB0021FFF7CBFEDFE7B9
:102F40002C10000030300000010300004E0E000085
:102F5000F8B5DE464E4657464546E0B58B46050079
:102F60000A991800160000F0F5FA0A9B6C001F027F
:102F7000324B64199C46A4006444636881469F42B6
:102F800000D967602B1FDBB29846012B30D9C023D4
:102F900080229B01E31812011A60294BAD00595998
:102FA0009A4600291BD17301E026226853401E4037
:102FB000802342465B01E3181E60012A30D980233A
:102FC00080229B01E31812011A6053464A4667604B
:102FD0005A51F0BCBB46B246A946A046F8BD586956
:102FE00000F0B8FA013043001B18033BFDD2DAE7CA
:102FF0005B46012BCBD1C02303229B01E3181A604F
:10300000023AA3681A42FCD07301E0262268AD00A0
:1030100053401E4080230A4A5B019246E3181E601B
:103020005A462168514003220A401A6001225B4639
:103030009A40A3681A42FCD0C1E7C0460080004015
:103040003C260020F0B546464F46D646C0B51F0088
:10305000344B44009C462418A400644463688846AA
:103060001600FF2B02D880235B006360031FDBB2D6
:103070009A46012B30D9C02380229B01E31812010C
:103080001A60294B85005959994600291BD17301B3
:10309000E026226853401E40802352465B01E3181D
:1030A0001E60012A30D9802380229B01E31812017F
:1030B0001A6080235B0063604B465F51E0BCBA46F8
:1030C000B146A846F0BD586900F044FA013043000B
:1030D0001B18033BFDD2DAE74346012BCBD1C023BB
:1030E00003229B01E3181A60023AA3681A42FCD03B
:1030F0007301E0262268850053401E4080230A4A5F
:103100005B019146E3181E6042462168514003224C
:103110000A401A60012342469340A2681342FCD041
:10312000C1E7C046008000403C260020014B8000E3
:10313000C05870473C260020F8B5040021481E0006
:1031400017000D0000F006FA0100380000F002FA46
:10315000069B36041B031E432368002B20DB1A4BFF
:103160001A49E3185A1E93418022920194465B4209
:103170001B0B174A1B0363441360164A13601F009E
:103180000A689743FBD1144B2560E2182123A06005
:1031900013602368002BFCDA0823E6601360F8BD97
:1031A0003F2322681340AB42D9D1A3681B051B0DF6
:1031B0008342D4D1EE22E368D2021340B342CED18F
:1031C000EDE7C046001BB7000040FDBF08C000404F
:1031D00000E0004000F000400430000010B5802402
:1031E0001C4BE4051C6000281AD001231A4C18431C
:1031F0001A4BDC611A4C44401C625962986280216F
:10320000144BC9051960174817490860E021C90423
:103210001960002A07D18022144B12061A6010BDD3
:103220000E4BD861EBE753019B1A9B009A18802341
:1032300012015B049A4209D213000D490B60074B3F
:103240005A608022094BD2051A60E8E7094B1A0040
:10325000F3E7C04600B00540D3C007B0008005408A
:103260002D3FF84FFCFF01000820014000A0054061
:103270005C340020FFFFFF008023024A9B000B43C9
:10328000D362704700800540002310B50100988A82
:103290001B8B984710BDC046162310B50100188837
:1032A00002331B88984710BDF8B54746CE4680B517
:1032B0000F1E18D01423994604330400002501265C
:1032C00098464B461888434621681B88984701C496
:1032D000431E984101350640AF42F2D13000C0BCD8
:1032E000B946B046F8BD0126F8E7C046002370B5E0
:1032F00004000D00988A05491B8B984703000020A5
:10330000002C01DB0130A040290098475542000005
:10331000AA23064A1B0113608D235B00D360044976
:10332000044B19605368002BFCDA704700400240E0
:1033300000B0FA00006002407047C04610B5014876
:10334000FEF78EFB00F7001070B5074D074EB54233
:1033500009D20024013E761BB60808CD9847230009
:103360000134B342F9D170BD88F40010C4F40010E8
:10337000054B064A06491A60064A074B1A601000B8
:103380000B689843FBD1704700E00040BFCDFBFEC7
:1033900008C00040FE7F3C0000F00040044BDB6CA6
:1033A000002B03D18022034BD2021A607047C04623
:1033B000000011504C201150044A054B1A60054A78
:1033C0001368DB018033FBD17047C046FFFFFF016C
:1033D00000F0004008C000404022034B9A675A6743
:1033E0001A67DA667047C04600F0014010B5FEF774
:1033F00005FC10BD70B5044D044CA968C022200026
:1034000000F04EFDAC6070BD00ED00E0000000205B
:10341000002310B5294C82B0A367FFF779FF012282
:10342000274B1A60636C012BFCD10322254B1A60D9
:10343000224A936B012BFCD1013300930121224AD4
:1034400022480433FFF778FE052301210093204A28
:103450002048FFF771FE0022022104201E4BFFF7D7
:10346000F1FD0022012105201C4BFFF7EBFD00229E
:10347000002107201A4BFFF7E5FD0022002108205C
:10348000174BFFF7DFFD8023DB00009300220021B4
:103490000920134BFFF75CFD0022104B0021062092
:1034A000FFF7D0FD0420FFF741FE0E4900F052F86F
:1034B00001000020FFF7E0FE02B010BD00800040D8
:1034C0003CB0004030B00040002F685900800240FE
:1034D000008C864700C00240001BB70040597307AC
:1034E000006CDC0240420F0001480421014B1847E8
:1034F000A0130020A9320010014B9B681847000060
:10350000A0130020124A936F9B0815D29066D166D3
:10351000002905D0FFE7FFE7FFE7516F106F704705
:1035200004B580210906C2175140002800D0C843C5
:103530000BF04AFF002104BDF0B5146E556E576FB5
:10354000166FFFF7E3FF1466556657671667F0BD01
:10355000000000D0114A936F9B0813D21066516689
:10356000002905D0FFE7FFE7FFE7516F106F7047B5
:1035700004B5002801D00020C0430BF025FF002136
:1035800004BDC046F0B5146E556E576F166FFFF749
:10359000E5FF1466556657671667F0BD000000D05A
:1035A00094464A4A926F9208624601D228E0C04689
:1035B000F0B5464E346E756E776F366F00F020F8BA
:1035C0009446424A14665566576716676246F0BDD0
:1035D00094463E4A926F9208624601D254E0C04639
:1035E000F0B53A4E346E756E776F366F00F04CF86A
:1035F0009446364A14665566576716676246F0BDAC
:10360000002B24DB11D000293EDA00B5C94340422B
:1036100000D1013100F038F8C943404200D10131F6
:10362000DB43524200D1013300BD002AEBD1002818
:1036300001D1002905D00020C90FC90701D1C0431D
:10364000410800B50BF0A0FE0022002300BD00B52C
:1036500000290ADBDB43524200D1013300F014F8A9
:10366000C943404200D1013100BDC943404200D1AD
:103670000131DB43524200D1013300F005F8DB4356
:10368000524200D1013300BD002923D1002B18D1B3
:10369000002A0CD0BC460D4F38667A660021002304
:1036A000FFE7FFE7FFE77A6F386F6746704700284C
:1036B00001D00748010000B50BF066FE0022002390
:1036C00000BD02000B00002000217047000000D068
:1036D000FFFFFFFF002B00D0BFE0130C28D1002A12
:1036E000E7D080B4114F39667A66FFE7FFE730B460
:1036F000040C7B6F396F1B0423433B667A66FFE73C
:10370000FFE7FFE7C04684B27B6F3D6F1B04234396
:103710003B667A66FFE7FFE7C04600232C042D0CCA
:103720007A6F386F00196941B0BC7047000000D053
:10373000F0B594460025140E01D112020835140F7D
:1037400001D112010435940F01D192000235D40F3A
:1037500001D152000135D40B0134254F7C66254C34
:103760003C660E0C93B2FFE7FFE7FFE73C6F664352
:10377000360C7703BE467343DF0B5B04C01AB941B6
:10378000130C7343DB18C91ACE086643360CB644D3
:1037900093B273431F0F1B01C01AB941130C73433B
:1037A0001F0B1B05C01AB941860D8F023E436643AD
:1037B000360C092D24DB520A7243801A7703460A1D
:1037C0006643360C16235B1BDE40DF40BF196446A0
:1037D0006643821B7046043506330100D940A84079
:1037E000C01900D30131A24206D20023F0BD00006F
:1037F000000000D0FFFFFFFF121B0130F3D3F1E701
:1038000009277F1BFE406446A2B27243801A00D291
:103810000139220C7243130C1204821A99410B00D5
:103820007046043513370100F940A840801900D3D1
:103830000131002B02D1A2420AD2F0BD013000D3E7
:103840000131121BFAD2013BF8D1A24200D2F0BDE5
:10385000013000D30131121BF7E7F0B51C0C00D08A
:1038600080E00CB400251C0A04D11B02160E334361
:10387000120208351C0B04D11B01160F3343120131
:1038800004359C0B04D19B00960F33439200023504
:10389000DC0B02D192185B4101351C009718644182
:1038A0000134464F7C66464C3C660E0CFFE7FFE752
:1038B000FFE7C0463C6F6643360C7703BE4697B2BF
:1038C0007743C01B00D20139C01B00D201399FB21F
:1038D0007743C91BC91B170C77437E04FF0B801B62
:1038E000B941CE086643360C0C2D33DBB644120BBF
:1038F0001F053A431B0B97B27743C01B00D2013917
:103900009FB27743C91B170C77433E043F0C801BC3
:10391000B941860D8F023E43664329277F1BFE4037
:103920000C3D7746AF40BF1930BCA2B2ABB2724378
:103930007343801A9941220C7243130C1204801AAB
:10394000994102000B000137001BA941F9D2781EF2
:103950000021F0BD0C277F1BFE4077467F0BAF4058
:10396000FF19E0E700245D1C07D0144F7D6639661F
:10397000FFE7FFE7FFE7FFE73C6F95B29EB26543C5
:103980006643401BB141150C1E0C6543664336046B
:103990002F0C3E432D04401BB141994204D202003A
:1039A0000B0020000021F0BD01D19042F7D3801A16
:1039B000994101349942F2D3F6E70000000000D0AB
:1039C000FFFFFFFF48404140484018B4134B5B687D
:1039D000019308BD18B4114B1B68019308BD9446B0
:1039E0000F4A926F920805D2624618B40B4BDB68FF
:1039F000019308BD0A4AF0B5146E556E576F166FE5
:103A00006246FFF7F2FF064A146655665767166767
:103A1000F0BD18B4014B9B68019308BDD01C002079
:103A2000000000D0FFB550404240504059404B404C
:103A3000594000E0FFB5154F4C00640D03D0BC4267
:103A400004D10C0314D80020090D09055C00640D95
:103A500003D0BC4204D11C030AD800221B0D1B0555
:103A600001264B4009D44B4003D58B4200D1824202
:103A7000FFBD9942FCD19042FFBD0B43DB180343CD
:103A80001343F5D0C9434918FFBD0000FF070000EC
:103A900000B5FFF7CFFF01D0002000BD012000BD21
:103AA00000B5FFF7C7FF804100BDC04600B5FFF776
:103AB000C1FF01D9002000BD012000BD00B5FFF706
:103AC000B1FF01D9002000BD012000BD00B5FFF706
:103AD000A9FF804100BD012040054A00121804D80A
:103AE0005A00121801D800207047012070470000CA
:103AF0000021002805D17047C1174840401AFAD06C
:103B0000C90713B5064B1B6898470CBC441CA24060
:103B10001005120B0349091B09051943114310BD78
:103B2000203500201F04000010B54C00620D8023DA
:103B3000D218DB00D21A5B057E2A10DD9E3A13DA1A
:103B4000CC170903490819435242D140640001349B
:103B50001532202A05DAD0400843604310BD00200A
:103B600010BD0846604310BDC80FC018013810BD15
:103B700018B4024B5B6A019308BD0000D01C002002
:103B800018B4024BDB6D019308BD0000D01C00206F
:103B9000C94211D300B549004908002200F014F8C9
:103BA000002904D4002240428A41114600BD8021F0
:103BB0000906002000BD000018B4024BDB6E019323
:103BC00008BD0000D01C002018B4024B9B6F01936D
:103BD00008BD0000D01C002018B4024BDB6F01931D
:103BE00008BD0000D01C002010B50148FDF738FFCB
:103BF0000CF70010132370B51D78012D19D014DDBA
:103C00001D48FFF749FB06001C48FFF745FB1C4C0D
:103C100080223100200000F043F9022D06D019481F
:103C2000FFF732FB184B186070BD154C174BA3649F
:103C3000F5E7174B124C23606360A360E3602361D8
:103C40006361A361E36123626362A362E36223634E
:103C50006363A363E36323646364A364E36423652E
:103C60006365A365E36523666366A366E36623670E
:103C70006367A367E367D9E7534400005346000036
:103C8000D01C00204C33000020350020953C001053
:103C9000E93B001007B5604601880A0A0230DF2AB6
:103CA000FAD1C9B2820804D30288408800041043C4
:103CB00000E00068014A5050039007BDD01C00206E
:103CC00051434343C9188C46110C83B24B4310B483
:103CD000040C614392B280B2504362431C041B0C3B
:103CE000001910BC59411304120CC0185141614411
:103CF000704700004840414048400E4B5B68184701
:103D00000C4B1B6818470C4A936F9B0802D2094B57
:103D1000DB681847F0B5146E556E576F166FFFF7D6
:103D2000F6FF054A1466556657671667F0BD014BE6
:103D30009B68184724350020000000D007B5484094
:103D40004140484001E0C04607B54200120E03D092
:103D5000FF2A03D1420218D8C00DC0054A00120E36
:103D600003D0FF2A03D14A020FD8C90DC905012289
:103D7000414005D4414001D5814207BD884207BD7D
:103D80000143491801D0C043001807BD00B5FFF733
:103D9000DBFF01D0002000BD012000BD491A002832
:103DA00008D1084670470000C10FC90700D540423E
:103DB000002817D0F44603B40B4B1B68984706BC89
:103DC00081409E384042803107D20B0607D049001F
:103DD000490AC0051043084360470130F8E7490A23
:103DE0008902F5E77047000020350020014B5B6A2F
:103DF0001847000024350020014BDB6F18470000F6
:103E000024350020014B9B69184700002435002011
:103E1000014B9B6D184700002435002010B5014868
:103E2000FDF71EFE04F50010132310B510481C7892
:103E3000FFF732FA0100012C0AD003DD80220D4881
:103E400000F02EF80C48FFF71FFA0C4B186010BD5D
:103E5000084C5422200000F023F822000849803248
:103E60002368002B00D1216004349442F8D1E9E7A3
:103E700053460000243500204C330000203500203C
:103E80001D3E001001480421014B1847B0130020CB
:103E9000A9320010014B1B6818470000B013002026
:103EA000014B5B6818470000B01300207047C04604
:103EB000F8B55746DE464E464546E0B599460A9B5C
:103EC00007009A460D9B884693460B9C9B073BD167
:103ED0000C9B9C423DD21E1B0B9415000C005E44B3
:103EE0002A004B46013521002020B847B542F7D1C2
:103EF000A0460B9C002C20D0454636195346321B59
:103F0000013C185D29004B46B847002CF6D12B0028
:103F1000350098460D9B9B070FD55B46EC1A0C9B12
:103F2000A3420AD9464698462A004B463100202033
:103F30000134B84701354445F6D32800F0BCBB46F0
:103F4000B246A946A046F8BD16001500002CD3D1F4
:103F5000E0E716001500002CCED1EEE7F0B545469F
:103F6000DE4657464E46E0B585B09C4610AB1B7802
:103F7000149F934698460F9C129E139DBB074CD4EA
:103F8000002D42D1B44248D201233B4099460E9BBA
:103F9000013B9A46302304E0524601341355A642B1
:103FA00001D9202CF8D14B46002B00D183E00E9B89
:103FB000013B99463023A54205D82EE04A460134FC
:103FC0001355AC4229D0202CF8D1FB060CD57B052B
:103FD00054D4A64263D0A54261D0119B102B50D07F
:103FE000022B57D0202C32D1202301930E9B5A460E
:103FF0000093039763460295FFF75AFF05B0F0BCA4
:10400000BB46B246A946A046F0BD01233B409946B7
:1040100001233B422AD1B442B9D3FB061CD57B0510
:10402000DBD4002CD5D1119B102B5BD0119B022B24
:104030006BD0302301240E9A13704346002B10D10D
:104040007B073ED52B260E9A631C1655CDE7230021
:10405000013430260E9AD654202CC5D04346002B6E
:10406000EED02D260E9A631C1655BEE74346002B54
:104070002FD0013DB44200D289E798E7119B102B65
:10408000B2D1BB0637D5202CAED058230E9A13558B
:104090000134A7E7202CA7D02300013407E0631EDA
:1040A000012CC0D0119A102A31D0022AD1D1622617
:1040B0000E9AD65496E7FB06CED57B0500D488E74A
:1040C0008BE723003E0790D520260E9A0133165524
:1040D0008BE70C233B405A1E9341ED1AB44200D2A9
:1040E00055E764E7BB060ED478230E9A02241370BA
:1040F00030235370A1E7202C00D175E778230E9A66
:10410000135501346EE75823EFE76033EDE70E9A5D
:10411000A61E91464E44BA0602D55822327098E740
:104120007822327095E7C04610B5002800D110BD46
:1041300001F024FDFBE7C0460B0010B5002802D0BB
:1041400049681B68984710BDF0B55746DE464E4695
:104150004546E0B595B083460F00924698461E9AB4
:104160001F9B10001900209EFFF7B5FC002800D00F
:10417000EAE11E981F990122C54B5242FFF790FCBD
:10418000002800D014E11E981F990122C14B524211
:10419000FFF79CFC002800D0E9E01E981F99002240
:1041A000BD4BFFF793FC002800D0C8E01E981F9974
:1041B0000022BA4BFFF774FC002800D0BFE01E9825
:1041C0001F9900220023FFF76BFC002800D0E4E0D9
:1041D00000230B93229B5B0500D40626002430238A
:1041E00007E0172106AA013452181355013E202C6E
:1041F00001D0092EF5D81E981F99FFF795FCA84B02
:10420000F2009B181A685B68050008920993FFF793
:1042100073FC02000B001E981F99FFF7D6FB089A4B
:10422000099BFFF7F6FB06900791FFF7A1FC81467B
:10423000FFF75EFC02000B0006980799FFF7C5FB2D
:104240000022984B06900791FFF740FC002800D110
:104250000DE101239C46E1444846FFF749FC02007A
:104260000B0008980999FFF721FC002802D00023D1
:1042700099460135002E00D1D9E006954D46B94644
:1042800014E006AA944617230A2163442800013447
:104290001F19FFF75FF93031397028000A21013EFC
:1042A000FFF758F9092D00D817E10500202CE8D1B7
:1042B0004F46069D20240CAE06AA1723944663445D
:1042C00099465B46B34606930FE04B4628000A2109
:1042D0000134E618FFF716F93031280031700A2151
:1042E000FFF710F9051E00D1E4E0202CEDD1069B6C
:1042F0005E469B460323229A1340012B18D1219B33
:10430000002B15D00B9B002B00D1FDE0219B013B26
:104310002193202B0CD93023219A07E0172006A9DE
:10432000013409180B55944200D3CCE0202CF5D170
:10433000229B01940393219B0096029322E0229BEF
:1043400052460493219B3900039358461E9B1F9CA1
:10435000029600930194434600F04AF904002000BD
:1043600015B0F0BCBB46B246A946A046F0BD229BA4
:104370005B070FD403224C4B2299019203912199A0
:10438000009302914346524639005846FFF790FD8C
:104390000400E4E70422454BEEE71E9A1F9B002031
:1043A0000021FFF712FB01231E901F910B9311E7D1
:1043B000229B54469B0711D1219B042B0ED9219B94
:1043C00055469C465E46043C64442A0043460135FB
:1043D00039002020B047A542F7D1B346344D26001E
:1043E0002B1F99465B46A3461C003200E8784346E3
:1043F0003900013DA04701364D45F6D123005C460A
:104400009B46229B04349B07A9D55346219AE31A65
:104410009A42A4D95E461500220043463900202066
:10442000B04753460134E31A9D42F5D897E7280078
:10443000FFF762FB02000B001E981F99FFF7C5FAF9
:104440000022184B06900791FFF72AFB0CAE0028BC
:1044500000D031E7069807990022124BFFF736FB90
:10446000002800D028E7012301359D4324E70022DE
:10447000069807990B4BFFF713FB002800D0F9E6CD
:104480004B46002B5CD101239C46E144F2E6C0463A
:10449000FFFFEFFFFFFFEF7F65CDCD4165CDCDC1C4
:1044A00080FF00100000E03F64F700105CF7001090
:1044B0006CF70010069B5E469B460323229A13402E
:1044C000012B00D181E0202C00D131E70B9B002B88
:1044D00027D02D23335501342AE74F46069D202C43
:1044E00000D1E7E63022331907E0172006A901348E
:1044F00009180A55202C00D1DCE6A342F5D12E2262
:104500000CAE0134F254D7E60C23229A134257D052
:10451000219B013B2193A34200D9FCE6202C00D132
:1045200006E7229B5B0703D52B2333550134FFE6B7
:10453000229B1B0700D4FBE6202333550134F7E60A
:10454000DB0700D496E69EE7229B55469B0711D1D8
:10455000219B032B0ED9219B54469C465E46033D6E
:10456000654422004346013439002020B047AC4264
:10457000F7D1B346B9465F461C4EEC1C2A00B07812
:10458000434649460135B847013EAC42F6D1229B2D
:10459000BB464F469B0700D4E1E65346219AE31AF7
:1045A0009A4200D8DBE65E461500220043463900F9
:1045B0002020B04753460134E31AAB42F5D3CEE690
:1045C000219BA34200D9A6E6B2E6219B002B00D195
:1045D00079E70B9B002B97D0219B013B21939C42B9
:1045E00000D298E6202C00D073E7A1E668F700100F
:1045F000F0B5DE4657464E464546E0B599B0814691
:104600008B4692469846229A239B10001900FFF78A
:1046100062FA002800D0CAE0229823990122824B36
:104620005242FFF753FA002800D0C0E022982399A5
:1046300001227E4B5242FFF733FA002800D0B6E049
:104640002298239900220023FFF72AFA002800D09D
:10465000C9E1229B239C0893099408980999802317
:10466000269ADB001A400D928022269C12011440EB
:1046700022000B94269C07000E001C4200D0ADE0E7
:104680000B00034300D0D5E0002A00D00AE222004C
:1046900006332493022313400C930223134200D0C9
:1046A00002E2259B042B00D20FE2043B0B93002374
:1046B00004250A930022229823990023FFF7F0F99A
:1046C000002800D003E25A4B269A134004930B9B18
:1046D0000393249B0293089B099C009301945946E1
:1046E000434652464846FFF72FFD02002020269BF6
:1046F0001F27034059424B415B421840531C08930B
:10470000594643464530C8470A9AD317D4185C40E7
:10471000D30F0A936B1E0B9308AB9C46002567448E
:1047200001E0202D0FD020000A21FEF713FF0135F4
:104730007E193031317020000A21FEF70BFF260070
:104740000400092EEDD8052306930B9B59460593CB
:10475000002304930A3303930A9B4846029310AB49
:104760000093089A43460195FFF7F8FB0C9B002B3A
:104770002DD05346C41A259BA34228D94D465F46E7
:1047800081461E00534639001A1920204346013441
:10479000A847A642F6D8534648462599C21A013280
:1047A0000023914200D386E1013018180FE0269BC8
:1047B0000493259B0393249B0293229B239C0093A9
:1047C00001944346524659464846FFF7BDFC19B08E
:1047D000F0BCBB46B246A946A046F0BD01432BD172
:1047E0000B9B2200002B00D154E700230A93249B4B
:1047F0000A9A0024934200DD85E122982399002241
:104800000023FFF74DF9002800D035E1269B084A28
:1048100002941A408023DB0013430493259B0393E7
:10482000089B099CCBE7C046FFFFEF7FFFFFEFFF30
:10483000FFF7FFFF06232493B44B70009C46400D06
:104840006044FFF759F9B24AB24BFFF7E2F8B24AB7
:10485000B24BFFF7BFF83603B14B360B33430400BE
:104860000D00380019000022AE4BFFF7AEF8AE4A3B
:10487000AE4BFFF7CEF802000B0020002900FFF737
:10488000A9F8FFF751F90A90FFF736F9A84AA94BA2
:1048900004000D00FFF7BDF80022A74BFFF79AF8C0
:1048A000FFF742F9A54A0600A54B20002900FFF7B3
:1048B000B0F8040030000D000C96FFF71DF9A14A76
:1048C000A14BFFF7A6F802000B0020002900FFF71C
:1048D0007CF802000B0006000F00FFF79AF8320088
:1048E00004000D003B0030003900FFF773F8002290
:1048F0000E900F91954B20002900FFF770F80022D1
:10490000934BFFF767F802000B0020002900FFF728
:1049100066F800228F4BFFF75DF802000B002000C5
:104920002900FFF75CF80D008021040032003B00F5
:104930000020C905FFF749F802000B0020002900FC
:10494000FFF748F802000B000E980F99FFF747F8A1
:104950000022734BFFF73EF87F4B0C9C9C4664444F
:1049600000222305FFF755F806000F0002000B0098
:1049700008980999FFF794F800280AD00A9B30009C
:10498000013B39000A930022714BFFF728F806001B
:104990000F000A9A330063323900C62A12D8022265
:1049A0002698042510400B9A0C90002A25D1259BAF
:1049B000042B05D9002800D0A1E0259B043B0B93D4
:1049C000042541E00222269810400B9A0C90002A00
:1049D00012D1259B052B76D9002872D1259B052560
:1049E000053B0B9334E0802212069446229B0893E9
:1049F000239B6344099330E605250B4300D1F6E67B
:104A000008980999554A564BFFF758F8002808D0DE
:104A1000089809990022534BFFF742F8002800D06C
:104A2000E5E6249B002B1CD00D9B002B19D0249B6A
:104A3000013B2493259BAB4204D90C9B002B5AD0FD
:104A400002230C9300230B930A9B002B00D131E629
:104A50000898099932003B00FEF7C1FF08900991C0
:104A600028E6259BAB42EDD90C9B002B43D00023BD
:104A70000B9302330C93E7E78020269B3A4A00060B
:104A80001A40802384460294089C099D2900DB007B
:104A900013430493259B6144220003930B0000926F
:104AA00001938EE60524A8E600230B930A930233B4
:104AB00004250C93FEE553468C46013B63441B1AC8
:104AC00072E602230C930525C2E70423EDE580205E
:104AD000089E099F000639008446269A224B6144AD
:104AE000134004930B9B32000393249B02930B000F
:104AF00000920193F3E5259B5B1B0B93A4E7022334
:104B000004250C93A0E79C1A013C76E601FCFFFF0C
:104B1000FB799F501344D33FB3C8608B288AC63FAC
:104B20000000F03F0000F83F61436F63A787D23F6A
:104B300071A379094F930A400000E03F1655B5BBB9
:104B4000B16B0240EF39FAFE422EE63F00002C40E6
:104B50000000244000001840FF0300002D431CEB20
:104B6000E2361A3F80842E41FFF7FFFFF0B5DE46A4
:104B700057464E464546E0B5A5B01E002E9B9246D0
:104B80000C93CD4ACD4B80468B461A60002900D14C
:104B9000EAE1002330789946002800D1ECE1C84BC7
:104BA0004C460B93C74B454657460E930AE0631C91
:104BB000984622003B005946A847444630780028D2
:104BC00000D187E001362528F1D108239A46043B1D
:104BD0009946023B9846013B00229C460D94307852
:104BE000711C0300203BDBB2102B03D80B9C9B00F5
:104BF000E3589F460300303B89460D9C092B3AD968
:104C0000002398462A2800D1C1E000239A462E2886
:104C10004BD00300683BDBB2122B1ED80E999B00D1
:104C2000CB589F4663460E001A43D8E743460E0012
:104C30001A43D4E74B460E001A43D0E710230E0068
:104C40001A43CCE753460E001A43C8E780235B00A3
:104C50001A43FF3B9C467078E1444E4667284FD884
:104C60002428A4D90300253BDBB2422B9FD89649C8
:104C70009B00CB589F46002394461E0000E0013164
:104C8000B3009B195B001E180878303E0300303BD0
:104C9000092BF4D90123624689469C460023B0467D
:104CA0009A460E00E1442E28B3D13021802049429B
:104CB0008C46C000024370784B4684446146092903
:104CC00000D86CE12A2800D17AE101239C464E46A7
:104CD000E1449EE7A146A846BA46CA4503D8012347
:104CE0005B425344994653464A4659460020C047C2
:104CF000200025B0F0BCBB46B246A946A046F0BD98
:104D00000300693BDBB20D930F2B00D94FE7012164
:104D100099408C466D49894661464B4619400F9132
:104D2000634649460B4200D028E10D9B0A2B3AD03E
:104D3000072B00D03BE70C9B190008C98846002BC5
:104D400000D14BE121200243914614A98C461F2239
:104D50000F2162448C4651460D950C91A2461500D8
:104D60000F9902E020290CD0130064461C4020005B
:104D70003730092C00D80738013168541A090F2B35
:104D8000F0D80C9B54460D9D9A460F9133E10C9B35
:104D900002CB8846002947DB0C9301239C467078A0
:104DA0004E46E14431E70C9B02CB14935346002B53
:104DB00000D138E19C4608780B000C908C44002808
:104DC00001D100F098FC89466146944603E05A7888
:104DD0000133002A01D08B42F9D1494662465B1A61
:104DE0000C900F93530500D520E1022318001040CA
:104DF0000D90134200D1CBE30D930B1BB1469A46A5
:104E00005E460C9822003B003100A847534601340F
:104E1000185D0028F6D1B3464E460D9B002B00D0FE
:104E2000C7E1149B0C93C9E60C9301239C462838D8
:104E300049420243884670784E46E144E5E6707880
:104E40006C2800D17FE180235B001A43FF3B9C4626
:104E5000E14402E780239B001A4301239C467078BB
:104E6000E144FAE67078682800D173E180231A43A0
:104E70007F3B9C46E144F0E6672800D103E14728E8
:104E800000D15AE1452800D15AE104920721424657
:104E90000C9B0392073352468B43190002920CC9B4
:104EA0002800009201930C9122003B005946FFF725
:104EB0009FFB040082E6C0466D4B00105834002072
:104EC000E4FD001028FE001074FE00104190000068
:104ED000462800D1DBE00492072142460C9B039256
:104EE000073352468B43190002920CC928000092E6
:104EF00001930C9122003B005946FFF725F904006D
:104F00005CE6631C984622003B0059462520A847D2
:104F1000444653E60C9B04330D93631C9946920759
:104F200000D422E10C9B2200187859463B00A84788
:104F300043464444012B00D885E23300B8462E0096
:104F40005F4625004C46994622004346013439000D
:104F50002020B047AC42F7D12C00BB463500474675
:104F60004E460D9B0C9329E6DB4B30789846002388
:104F70009946002800D012E60024AEE66F2800D142
:104F800088E000D80BE31023782800D1CFE09A43C3
:104F90000A239C4600230F930A330D9380E0564664
:104FA000B1008919490001330E181878303E01000C
:104FB00030390929F4D9B2461E000133994628E652
:104FC0000C9B023602CB8A46C9435046C91708409B
:104FD00082460C933078731C99461AE61023100011
:104FE000984311331843814680201300C0000340CA
:104FF000024200D1A9E64B46069308230593534687
:10500000049310230393002302930F9B2200019328
:105010001CAB009359463B002800FEF79FFF434618
:1050200004000C93CAE501235B42C3E60F9B534582
:1050300001D953460F930223180010400D901342DC
:1050400000D1B7E10D93D1460B1B9A463300A14422
:105050002E0022004D460C98B9465F469B4608E05C
:105060004B463900541CB0475346185D002877D092
:1050700022009542F4D15B46BB464F46A946350017
:105080004C461E00C9E680231B011A43FDE620237F
:105090001A4320E708239C4600230F9308330D93FF
:1050A00080231100DB0019401A4200D116E10D23C4
:1050B0009A431000802302009B001A401492184269
:1050C00000D0C2E1802302005B001A4091460C9A96
:1050D00004320F92184200D0B7E2430600D59FE198
:1050E000030600D419E30C9B1B880993002B00D006
:1050F000FCE110339843002900D1F7E100239946E1
:1051000043460593534604930D9B06900393002357
:10511000D2E0582808D0622867D102239C46002399
:105120000F9302330D93BBE720231A43103B9C4699
:1051300000230F9310330D93B2E780231B011A4312
:1051400020231A43A1E6C0239B001A43F31C99466F
:10515000B07882E5C0231A43F31C9946B0787CE509
:1051600035005E46BB464F4657E64346012B00D806
:1051700063E1631E43449A463300B9462E005F46FE
:1051800055469B46A24622004B460134390020205A
:10519000B047AC42F7D135005E46BB464F46A1460C
:1051A00054460C9B4A46187859463B004444A8474D
:1051B000D7E6A1460F9B984500D832E64444E41A4E
:1051C0003300B8462E005F4625004C469946220023
:1051D0004346013439002020B047AC42F7D12C00BF
:1051E000BB46350047464E461BE680231000DB00D9
:1051F00018401A4200D10FE1112118008A430D9284
:105200000D9A802311009B0019408C461A4269D1E7
:10521000802311005B00194089460C9904310F91DD
:105220001A4200D0CAE113005B0600D5F0E013007B
:105230001B0600D459E20C9B00229B5ED9175A181A
:105240004A4092B2D90F0C91002B00D1F9E1100025
:1052500014AA944642461F23149252466344A84619
:1052600016944D460400B946B2461F00159201E05F
:10527000202D0FD020000A21FEF76CF901357E1990
:105280003031317020000A21FEF764F92600040055
:10529000092EEDD8149B4F46A94645469846159BC6
:1052A00056469A46169C0D9B0693434605935346D5
:1052B00004930A2303930C9B02934B4601931CAB6C
:1052C0002200009359463B002800FEF747FE0F9B43
:1052D00004000C9372E4C046AD3E00100C239A43C8
:1052E0001000E7E607220C9B0733934301329446F4
:1052F0009C4462460C920CCBD90F0F9111001943BC
:1053000000D191E0D9171391129151401091139946
:105310005940119110981199129A139B801A994132
:105320001090119114AA0023944642469946149273
:1053300052461F336344A846B24616944E46109C0C
:10534000119DB94615921F0001E0202E10D02000BB
:1053500029000A220023FEF73BF9013630322B00E8
:10536000BA550D0022000400002BEED1092AECD81A
:10537000149B1094119545469846159B4F46B1468F
:1053800056469A46169C0D9B0693434605935346F4
:1053900004930A2303930F9B02934B4601931CAB88
:1053A0002200009359463B002800FEF7D7FD040079
:1053B000FFF704FC0F9B984500D8C1E18023DB0078
:1053C0000D9343460F9A1B199B1A994633002E00E2
:1053D0004D46B9465F469B460C9122004B46013430
:1053E00039002020B047AC42F7D143460C99013335
:1053F0000F930B7835000C935E46BB464F46002B4F
:1054000000D10EE50D9B002B00D1F6E4002319E638
:105410000C9B1B781A0015E710239A430D92EFE6B8
:105420000C9B1B78099361E6002399460028AAD1BA
:10543000002200231092119374E70C9B220018782D
:1054400059463B00A8474C468BE50C9AFA3BFF3B7C
:1054500007329A430133994691444B460C931368A3
:10546000526815921A4306D11032904300220992D5
:10547000002900D081E06122810600D54122D2B20C
:105480000A9214AA91460A9A00210A3A14924246B4
:105490001792524618925A460991B3461F311E0080
:1054A0000F9B4944BA4619941A95002467469846BA
:1054B0008946159D16901B920AE03032D2B24B46B7
:1054C00001341A55A8454AD0202C4AD006000D00B8
:1054D0003A00002330002900FEF77AF8D2B2092AF8
:1054E000EBD9149B9C466244D2B2E8E76123820662
:1054F00000D54123DBB20A3B0C93434614A91F227B
:105500008C46159353466244A046B2464C461797C4
:10551000A9461700099D0D9E1490169308E030339C
:10552000DBB201343B55B5420ED3202C0CD0050024
:1055300031002800FEF70EF8CBB20929EFD90C9AFA
:1055400094466344DBB2ECE7159B4D46A1464446C6
:105550009846169B564614989A46179FD0E5B74230
:10556000B2D9179B57469846189B5E469A461B9B96
:1055700009949B461698199C1A9D434605935346D9
:1055800004930D9B0690039300230293099B05E768
:105590000F9B984500D914E701330F932DE4102396
:1055A000110099430D91692800D0BAE080231000C2
:1055B000DB0018401A4200D122E61DE60C9B1B6856
:1055C000DA0F1100002B00D18CE0DA179818504048
:1055D00014AA914642461F23149252464B44A046B9
:1055E000A946169704006546B2461F000C91159215
:1055F00001E0202D0FD020000A21FDF7ABFF01357F
:105600007E193031317020000A21FDF7A3FF2600FA
:105610000400092EEDD8149B444698460C9BAC46DA
:105620001900159B56464D469A46169F0D9B0291B2
:10563000069343460593534604930A230393634614
:105640003CE6002800D02EE602E60C9B1B6899463B
:10565000002B03D110339843002938D161238206EF
:1056600000D54123DBB20A3B0C93434616935346C5
:1056700014A91F228C4617932B006244A0464D4666
:10568000B246189799461700149C0D9E159008E095
:105690003033DBB201343B55B5420ED3202C0CD055
:1056A000050031002800FDF755FFCBB20929EFD9DD
:1056B0000C9A94466344DBB2ECE7169B1494444680
:1056C0009846179B56464D469A461598189F43464E
:1056D0000593534604930D9B069003930023029376
:1056E000149BEBE50028A1D172E70C9B1B68D9172E
:1056F0005A184A40A6E580231000DB0018409C465B
:105700000F901A420FD00220030013400F93104253
:1057100019D00023A1460F934CE50C9B1B680993FD
:10572000E4E40A0034E40223180010400D90134210
:1057300000D03EE54346002B00D042E6FFF771FB68
:1057400001330F937FE463460D93F3E710B50C002C
:1057500084B00394012402A902900093034813002B
:105760006242FFF703FA04B010BDC0463941001091
:105770000FB430B50C4985B008AA08CA0D68039269
:10578000002D0CD000920122084C5242200002A9A8
:10579000A847012005B030BC08BC04B01847180069
:1057A00000F036FA0020F5E75834002029410010B7
:1057B00010B5094A0300146884B0002C08D00122F7
:1057C00000910648524203A9A047012004B010BD31
:1057D00000F01EFA0020F9E758340020294100109B
:1057E00000BEFDE7094A03001068002805D00849FB
:1057F000C3188B4207D81360704706480449C31882
:1058000010608B42F7D901204042F5E70C300020B0
:10581000000004207036002010B5FFF7E1FFC046FD
:1058200030B50D0083B01900002A0BD0074B084C8F
:105830000192009302002B002000FFF799FF012046
:10584000FFF7CEFF034B1A00F1E7C04674F70010D4
:1058500084F7001004F5001070B5FDF775FD074DD5
:10586000074EB54209D20024013E761BB60808CD8A
:10587000984723000134B342F9D170BDC4F400103D
:10588000CCF40010030010B5080011001B68984705
:1058900010BDC046F0B5C64600B5437D07000C00FC
:1058A0001600002B46D0002A17DD0B780A2B24D0D7
:1058B00000239846012E13D001252900635C013591
:1058C0000A2B26D0B542F8D1464509DCA419013C83
:1058D00023780D3B5A4253413B7580BCB846F0BD1E
:1058E0004346E018A419F11A013C3B689847237815
:1058F0000D3B5A4253413B75EFE7037D002BD7D157
:1059000002210F483B689847012EDFD001239846BB
:10591000D2E7631E5B5C0D2BD4D0884504DA434686
:10592000C91AE0183B689847022105483B68A84619
:105930009847C7E70368110020009847CDE7C046A5
:10594000D0FF0010F0B5C6460B6806000C0000B58D
:10595000802B06D05A1C2260E418267180BCB84601
:10596000F0BD0F4B1D68002D16D00B1D98460D4F36
:1059700002E02D69002D0FD02B68002BF9D03B6879
:10598000002B01D0AB42F4D1280041462268FFF73A
:1059900081FF2D69002DEFD101220023DBE7C046F6
:1059A000842F002004300020F0B54546DE464E46E8
:1059B0005746E0B583B091461C0080460D00FDF7C8
:1059C0007FF90023304A12184B41002B02DA0122E2
:1059D0002E4B52422E4908008A4609F02DFD070041
:1059E0006B1C03D1404608F0FDF80500002C27D0C1
:1059F000284E294B1C68002C18D04B46002B21D177
:105A0000264B994602E02469002C0FD02368002B16
:105A1000F9D04B461B68002B01D09C42F3D12000EB
:105A20002A004146B0472469002CEFD1002F26D12F
:105A3000280003B0F0BCBB46B246A946A046F0BD64
:105A4000174ED6E7154B99460A239B4602E0246978
:105A5000002CEBD02368002BF9D04B461B68002BA1
:105A600001D0A342F3D12A0041462000B0476B4643
:105A70005A462000DA71D91D0122B047E7E75046A7
:105A800009F07AFCD4E7C04640420F00FFFFFF7FD9
:105A9000F81A002095580010842F002004300020B0
:105AA000855800100A4A1368002B05D10CE01A0033
:105AB0001B691032002B07D08342F8D1002902D194
:105AC00018691060196170470029FCD01060FAE76E
:105AD000842F002010B500F0F9F900F035FC01200A
